{
  "_format": "hh-sol-artifact-1",
  "contractName": "ZakatDonation",
  "sourceName": "contracts/ZakatDonation.sol",
  "abi": [
    {
      "anonymous": false,
      "inputs": [
        {
          "indexed": true,
          "internalType": "address",
          "name": "donor",
          "type": "address"
        },
        {
          "indexed": true,
          "internalType": "address",
          "name": "recipient",
          "type": "address"
        },
        {
          "indexed": false,
          "internalType": "uint256",
          "name": "amount",
          "type": "uint256"
        }
      ],
      "name": "DonationMade",
      "type": "event"
    },
    {
      "anonymous": false,
      "inputs": [
        {
          "indexed": true,
          "internalType": "address",
          "name": "recipient",
          "type": "address"
        },
        {
          "indexed": false,
          "internalType": "uint256",
          "name": "amount",
          "type": "uint256"
        }
      ],
      "name": "FundsWithdrawn",
      "type": "event"
    },
    {
      "anonymous": false,
      "inputs": [
        {
          "indexed": true,
          "internalType": "address",
          "name": "recipient",
          "type": "address"
        }
      ],
      "name": "RecipientVerified",
      "type": "event"
    },
    {
      "inputs": [
        {
          "internalType": "address",
          "name": "_recipient",
          "type": "address"
        }
      ],
      "name": "donate",
      "outputs": [],
      "stateMutability": "payable",
      "type": "function"
    },
    {
      "inputs": [
        {
          "internalType": "address",
          "name": "",
          "type": "address"
        }
      ],
      "name": "donations",
      "outputs": [
        {
          "internalType": "uint256",
          "name": "",
          "type": "uint256"
        }
      ],
      "stateMutability": "view",
      "type": "function"
    },
    {
      "inputs": [
        {
          "internalType": "address",
          "name": "",
          "type": "address"
        }
      ],
      "name": "verifiedRecipients",
      "outputs": [
        {
          "internalType": "bool",
          "name": "",
          "type": "bool"
        }
      ],
      "stateMutability": "view",
      "type": "function"
    },
    {
      "inputs": [
        {
          "internalType": "address",
          "name": "_recipient",
          "type": "address"
        }
      ],
      "name": "verifyRecipient",
      "outputs": [],
      "stateMutability": "nonpayable",
      "type": "function"
    },
    {
      "inputs": [],
      "name": "withdrawFunds",
      "outputs": [],
      "stateMutability": "nonpayable",
      "type": "function"
    }
  ],
  "bytecode": "0x6080604052348015600f57600080fd5b50610a528061001f6000396000f3fe6080604052600436106100495760003560e01c8062362a951461004e57806324600fc31461006a57806392b1297814610081578063cc6cb19a146100aa578063cc7fee24146100e7575b600080fd5b6100686004803603810190610063919061063d565b610124565b005b34801561007657600080fd5b5061007f6102b0565b005b34801561008d57600080fd5b506100a860048036038101906100a3919061063d565b610505565b005b3480156100b657600080fd5b506100d160048036038101906100cc919061063d565b6105a2565b6040516100de9190610683565b60405180910390f35b3480156100f357600080fd5b5061010e6004803603810190610109919061063d565b6105ba565b60405161011b91906106b9565b60405180910390f35b6000808273ffffffffffffffffffffffffffffffffffffffff1673ffffffffffffffffffffffffffffffffffffffff16815260200190815260200160002060009054906101000a900460ff166101af576040517f08c379a00000000000000000000000000000000000000000000000000000000081526004016101a690610731565b60405180910390fd5b600034116101f2576040517f08c379a00000000000000000000000000000000000000000000000000000000081526004016101e9906107c3565b60405180910390fd5b34600160008373ffffffffffffffffffffffffffffffffffffffff1673ffffffffffffffffffffffffffffffffffffffff16815260200190815260200160002060008282546102419190610812565b925050819055508073ffffffffffffffffffffffffffffffffffffffff163373ffffffffffffffffffffffffffffffffffffffff167f70c6bc6cf53707fb5561feef795d557f7e46f57bd4f1a13ce36e9ffdf58d38bb346040516102a59190610683565b60405180910390a350565b6000803373ffffffffffffffffffffffffffffffffffffffff1673ffffffffffffffffffffffffffffffffffffffff16815260200190815260200160002060009054906101000a900460ff1661033b576040517f08c379a0000000000000000000000000000000000000000000000000000000008152600401610332906108b8565b60405180910390fd5b6000600160003373ffffffffffffffffffffffffffffffffffffffff1673ffffffffffffffffffffffffffffffffffffffff168152602001908152602001600020549050600081116103c2576040517f08c379a00000000000000000000000000000000000000000000000000000000081526004016103b99061094a565b60405180910390fd5b6000600160003373ffffffffffffffffffffffffffffffffffffffff1673ffffffffffffffffffffffffffffffffffffffff1681526020019081526020016000208190555060003373ffffffffffffffffffffffffffffffffffffffff168260405161042d9061099b565b60006040518083038185875af1925050503d806000811461046a576040519150601f19603f3d011682016040523d82523d6000602084013e61046f565b606091505b50509050806104b3576040517f08c379a00000000000000000000000000000000000000000000000000000000081526004016104aa906109fc565b60405180910390fd5b3373ffffffffffffffffffffffffffffffffffffffff167feaff4b37086828766ad3268786972c0cd24259d4c87a80f9d3963a3c3d999b0d836040516104f99190610683565b60405180910390a25050565b60016000808373ffffffffffffffffffffffffffffffffffffffff1673ffffffffffffffffffffffffffffffffffffffff16815260200190815260200160002060006101000a81548160ff0219169083151502179055508073ffffffffffffffffffffffffffffffffffffffff167f0e37c43bb113af8a3b20295b493422e62cc015a21c04b98041830589f3f5e3aa60405160405180910390a250565b60016020528060005260406000206000915090505481565b60006020528060005260406000206000915054906101000a900460ff1681565b600080fd5b600073ffffffffffffffffffffffffffffffffffffffff82169050919050565b600061060a826105df565b9050919050565b61061a816105ff565b811461062557600080fd5b50565b60008135905061063781610611565b92915050565b600060208284031215610653576106526105da565b5b600061066184828501610628565b91505092915050565b6000819050919050565b61067d8161066a565b82525050565b60006020820190506106986000830184610674565b92915050565b60008115159050919050565b6106b38161069e565b82525050565b60006020820190506106ce60008301846106aa565b92915050565b600082825260208201905092915050565b7f526563697069656e74206973206e6f7420766572696669656400000000000000600082015250565b600061071b6019836106d4565b9150610726826106e5565b602082019050919050565b6000602082019050818103600083015261074a8161070e565b9050919050565b7f446f6e6174696f6e20616d6f756e74206d75737420626520677265617465722060008201527f7468616e207a65726f0000000000000000000000000000000000000000000000602082015250565b60006107ad6029836106d4565b91506107b882610751565b604082019050919050565b600060208201905081810360008301526107dc816107a0565b9050919050565b7f4e487b7100000000000000000000000000000000000000000000000000000000600052601160045260246000fd5b600061081d8261066a565b91506108288361066a565b92508282019050808211156108405761083f6107e3565b5b92915050565b7f596f75206d757374206265206120766572696669656420726563697069656e7460008201527f20746f2077697468647261772066756e64730000000000000000000000000000602082015250565b60006108a26032836106d4565b91506108ad82610846565b604082019050919050565b600060208201905081810360008301526108d181610895565b9050919050565b7f4e6f2066756e647320617661696c61626c6520666f722077697468647261776160008201527f6c00000000000000000000000000000000000000000000000000000000000000602082015250565b60006109346021836106d4565b915061093f826108d8565b604082019050919050565b6000602082019050818103600083015261096381610927565b9050919050565b600081905092915050565b50565b600061098560008361096a565b915061099082610975565b600082019050919050565b60006109a682610978565b9150819050919050565b7f5472616e73666572206661696c65640000000000000000000000000000000000600082015250565b60006109e6600f836106d4565b91506109f1826109b0565b602082019050919050565b60006020820190508181036000830152610a15816109d9565b905091905056fea264697066735822122021abd590f665fe5000f59dcf701e2fd608242c3b1f7d8cbfbe2498c05e17dc8c64736f6c634300081b0033",
  "linkReferences": {},
  "deployedLinkReferences": {}
}