{
  "_format": "hh-sol-artifact-1",
  "contractName": "Fundraising",
  "sourceName": "contracts/Fundraising.sol",
  "abi": [
    {
      "anonymous": false,
      "inputs": [
        {
          "indexed": true,
          "internalType": "uint256",
          "name": "campaignId",
          "type": "uint256"
        },
        {
          "indexed": true,
          "internalType": "address",
          "name": "creator",
          "type": "address"
        },
        {
          "indexed": false,
          "internalType": "string",
          "name": "name",
          "type": "string"
        },
        {
          "indexed": false,
          "internalType": "uint256",
          "name": "targetAmount",
          "type": "uint256"
        }
      ],
      "name": "CampaignCreated",
      "type": "event"
    },
    {
      "anonymous": false,
      "inputs": [
        {
          "indexed": true,
          "internalType": "uint256",
          "name": "campaignId",
          "type": "uint256"
        },
        {
          "indexed": true,
          "internalType": "address",
          "name": "donor",
          "type": "address"
        },
        {
          "indexed": false,
          "internalType": "uint256",
          "name": "amount",
          "type": "uint256"
        }
      ],
      "name": "DonationMade",
      "type": "event"
    },
    {
      "anonymous": false,
      "inputs": [
        {
          "indexed": true,
          "internalType": "uint256",
          "name": "campaignId",
          "type": "uint256"
        },
        {
          "indexed": true,
          "internalType": "address",
          "name": "creator",
          "type": "address"
        },
        {
          "indexed": false,
          "internalType": "uint256",
          "name": "amount",
          "type": "uint256"
        }
      ],
      "name": "FundsWithdrawn",
      "type": "event"
    },
    {
      "inputs": [],
      "name": "campaignCount",
      "outputs": [
        {
          "internalType": "uint256",
          "name": "",
          "type": "uint256"
        }
      ],
      "stateMutability": "view",
      "type": "function"
    },
    {
      "inputs": [
        {
          "internalType": "uint256",
          "name": "",
          "type": "uint256"
        }
      ],
      "name": "campaigns",
      "outputs": [
        {
          "internalType": "address",
          "name": "creator",
          "type": "address"
        },
        {
          "internalType": "string",
          "name": "name",
          "type": "string"
        },
        {
          "internalType": "uint256",
          "name": "targetAmount",
          "type": "uint256"
        },
        {
          "internalType": "uint256",
          "name": "totalDonations",
          "type": "uint256"
        },
        {
          "internalType": "bool",
          "name": "isActive",
          "type": "bool"
        }
      ],
      "stateMutability": "view",
      "type": "function"
    },
    {
      "inputs": [
        {
          "internalType": "string",
          "name": "_name",
          "type": "string"
        },
        {
          "internalType": "uint256",
          "name": "_targetAmount",
          "type": "uint256"
        }
      ],
      "name": "createCampaign",
      "outputs": [],
      "stateMutability": "nonpayable",
      "type": "function"
    },
    {
      "inputs": [
        {
          "internalType": "uint256",
          "name": "_campaignId",
          "type": "uint256"
        }
      ],
      "name": "donateToCampaign",
      "outputs": [],
      "stateMutability": "payable",
      "type": "function"
    },
    {
      "inputs": [
        {
          "internalType": "uint256",
          "name": "_campaignId",
          "type": "uint256"
        }
      ],
      "name": "withdrawFunds",
      "outputs": [],
      "stateMutability": "nonpayable",
      "type": "function"
    }
  ],
  "bytecode": "0x6080604052348015600f57600080fd5b506112628061001f6000396000f3fe60806040526004361061004a5760003560e01c8063141961bc1461004f578063155dd5ee1461009057806342a4fda8146100b95780637274e30d146100d5578063f102a67c14610100575b600080fd5b34801561005b57600080fd5b5061007660048036038101906100719190610799565b610129565b6040516100879594939291906108c1565b60405180910390f35b34801561009c57600080fd5b506100b760048036038101906100b29190610799565b610214565b005b6100d360048036038101906100ce9190610799565b610469565b005b3480156100e157600080fd5b506100ea6105ae565b6040516100f7919061091b565b60405180910390f35b34801561010c57600080fd5b5061012760048036038101906101229190610a6b565b6105b4565b005b60006020528060005260406000206000915090508060000160009054906101000a900473ffffffffffffffffffffffffffffffffffffffff169080600101805461017290610af6565b80601f016020809104026020016040519081016040528092919081815260200182805461019e90610af6565b80156101eb5780601f106101c0576101008083540402835291602001916101eb565b820191906000526020600020905b8154815290600101906020018083116101ce57829003601f168201915b5050505050908060020154908060030154908060040160009054906101000a900460ff16905085565b600080600083815260200190815260200160002090508060000160009054906101000a900473ffffffffffffffffffffffffffffffffffffffff1673ffffffffffffffffffffffffffffffffffffffff163373ffffffffffffffffffffffffffffffffffffffff16146102bc576040517f08c379a00000000000000000000000000000000000000000000000000000000081526004016102b390610b99565b60405180910390fd5b8060040160009054906101000a900460ff161561030e576040517f08c379a000000000000000000000000000000000000000000000000000000000815260040161030590610c05565b60405180910390fd5b6000816003015411610355576040517f08c379a000000000000000000000000000000000000000000000000000000000815260040161034c90610c71565b60405180910390fd5b6000816003015490506000826003018190555060003373ffffffffffffffffffffffffffffffffffffffff168260405161038e90610cc2565b60006040518083038185875af1925050503d80600081146103cb576040519150601f19603f3d011682016040523d82523d6000602084013e6103d0565b606091505b5050905080610414576040517f08c379a000000000000000000000000000000000000000000000000000000000815260040161040b90610d23565b60405180910390fd5b3373ffffffffffffffffffffffffffffffffffffffff16847ff440aec6b52895984d061d622e6edeba6210f7c3e059be920663140c084560d78460405161045b919061091b565b60405180910390a350505050565b600080600083815260200190815260200160002090508060040160009054906101000a900460ff166104d0576040517f08c379a00000000000000000000000000000000000000000000000000000000081526004016104c790610d8f565b60405180910390fd5b60003411610513576040517f08c379a000000000000000000000000000000000000000000000000000000000815260040161050a90610e21565b60405180910390fd5b348160030160008282546105279190610e70565b92505081905550806002015481600301541061055b5760008160040160006101000a81548160ff0219169083151502179055505b3373ffffffffffffffffffffffffffffffffffffffff16827fe555da28bdb778f65d22794d88927ebaeca03f7de9d1b7d39245bc8fb5ca078a346040516105a2919061091b565b60405180910390a35050565b60015481565b600081116105f7576040517f08c379a00000000000000000000000000000000000000000000000000000000081526004016105ee90610f16565b60405180910390fd5b6040518060a001604052803373ffffffffffffffffffffffffffffffffffffffff1681526020018381526020018281526020016000815260200160011515815250600080600154815260200190815260200160002060008201518160000160006101000a81548173ffffffffffffffffffffffffffffffffffffffff021916908373ffffffffffffffffffffffffffffffffffffffff16021790555060208201518160010190816106a891906110e2565b50604082015181600201556060820151816003015560808201518160040160006101000a81548160ff0219169083151502179055509050503373ffffffffffffffffffffffffffffffffffffffff166001547f825fb10f7650ed27414d6f86acdf7d5946927d9b25001f045f1a2435deec02fe848460405161072b9291906111b4565b60405180910390a360016000815480929190610746906111e4565b91905055505050565b6000604051905090565b600080fd5b600080fd5b6000819050919050565b61077681610763565b811461078157600080fd5b50565b6000813590506107938161076d565b92915050565b6000602082840312156107af576107ae610759565b5b60006107bd84828501610784565b91505092915050565b600073ffffffffffffffffffffffffffffffffffffffff82169050919050565b60006107f1826107c6565b9050919050565b610801816107e6565b82525050565b600081519050919050565b600082825260208201905092915050565b60005b83811015610841578082015181840152602081019050610826565b60008484015250505050565b6000601f19601f8301169050919050565b600061086982610807565b6108738185610812565b9350610883818560208601610823565b61088c8161084d565b840191505092915050565b6108a081610763565b82525050565b60008115159050919050565b6108bb816108a6565b82525050565b600060a0820190506108d660008301886107f8565b81810360208301526108e8818761085e565b90506108f76040830186610897565b6109046060830185610897565b61091160808301846108b2565b9695505050505050565b60006020820190506109306000830184610897565b92915050565b600080fd5b600080fd5b7f4e487b7100000000000000000000000000000000000000000000000000000000600052604160045260246000fd5b6109788261084d565b810181811067ffffffffffffffff8211171561099757610996610940565b5b80604052505050565b60006109aa61074f565b90506109b6828261096f565b919050565b600067ffffffffffffffff8211156109d6576109d5610940565b5b6109df8261084d565b9050602081019050919050565b82818337600083830152505050565b6000610a0e610a09846109bb565b6109a0565b905082815260208101848484011115610a2a57610a2961093b565b5b610a358482856109ec565b509392505050565b600082601f830112610a5257610a51610936565b5b8135610a628482602086016109fb565b91505092915050565b60008060408385031215610a8257610a81610759565b5b600083013567ffffffffffffffff811115610aa057610a9f61075e565b5b610aac85828601610a3d565b9250506020610abd85828601610784565b9150509250929050565b7f4e487b7100000000000000000000000000000000000000000000000000000000600052602260045260246000fd5b60006002820490506001821680610b0e57607f821691505b602082108103610b2157610b20610ac7565b5b50919050565b7f4f6e6c79207468652063616d706169676e2063726561746f722063616e20776960008201527f7468647261772066756e64730000000000000000000000000000000000000000602082015250565b6000610b83602c83610812565b9150610b8e82610b27565b604082019050919050565b60006020820190508181036000830152610bb281610b76565b9050919050565b7f43616d706169676e206973207374696c6c206163746976650000000000000000600082015250565b6000610bef601883610812565b9150610bfa82610bb9565b602082019050919050565b60006020820190508181036000830152610c1e81610be2565b9050919050565b7f4e6f2066756e647320746f207769746864726177000000000000000000000000600082015250565b6000610c5b601483610812565b9150610c6682610c25565b602082019050919050565b60006020820190508181036000830152610c8a81610c4e565b9050919050565b600081905092915050565b50565b6000610cac600083610c91565b9150610cb782610c9c565b600082019050919050565b6000610ccd82610c9f565b9150819050919050565b7f5472616e73666572206661696c65640000000000000000000000000000000000600082015250565b6000610d0d600f83610812565b9150610d1882610cd7565b602082019050919050565b60006020820190508181036000830152610d3c81610d00565b9050919050565b7f43616d706169676e206973206e6f742061637469766500000000000000000000600082015250565b6000610d79601683610812565b9150610d8482610d43565b602082019050919050565b60006020820190508181036000830152610da881610d6c565b9050919050565b7f446f6e6174696f6e20616d6f756e74206d75737420626520677265617465722060008201527f7468616e207a65726f0000000000000000000000000000000000000000000000602082015250565b6000610e0b602983610812565b9150610e1682610daf565b604082019050919050565b60006020820190508181036000830152610e3a81610dfe565b9050919050565b7f4e487b7100000000000000000000000000000000000000000000000000000000600052601160045260246000fd5b6000610e7b82610763565b9150610e8683610763565b9250828201905080821115610e9e57610e9d610e41565b5b92915050565b7f54617267657420616d6f756e74206d757374206265206772656174657220746860008201527f616e207a65726f00000000000000000000000000000000000000000000000000602082015250565b6000610f00602783610812565b9150610f0b82610ea4565b604082019050919050565b60006020820190508181036000830152610f2f81610ef3565b9050919050565b60008190508160005260206000209050919050565b60006020601f8301049050919050565b600082821b905092915050565b600060088302610f987fffffffffffffffffffffffffffffffffffffffffffffffffffffffffffffffff82610f5b565b610fa28683610f5b565b95508019841693508086168417925050509392505050565b6000819050919050565b6000610fdf610fda610fd584610763565b610fba565b610763565b9050919050565b6000819050919050565b610ff983610fc4565b61100d61100582610fe6565b848454610f68565b825550505050565b600090565b611022611015565b61102d818484610ff0565b505050565b5b818110156110515761104660008261101a565b600181019050611033565b5050565b601f8211156110965761106781610f36565b61107084610f4b565b8101602085101561107f578190505b61109361108b85610f4b565b830182611032565b50505b505050565b600082821c905092915050565b60006110b96000198460080261109b565b1980831691505092915050565b60006110d283836110a8565b9150826002028217905092915050565b6110eb82610807565b67ffffffffffffffff81111561110457611103610940565b5b61110e8254610af6565b611119828285611055565b600060209050601f83116001811461114c576000841561113a578287015190505b61114485826110c6565b8655506111ac565b601f19841661115a86610f36565b60005b828110156111825784890151825560018201915060208501945060208101905061115d565b8683101561119f578489015161119b601f8916826110a8565b8355505b6001600288020188555050505b505050505050565b600060408201905081810360008301526111ce818561085e565b90506111dd6020830184610897565b9392505050565b60006111ef82610763565b91507fffffffffffffffffffffffffffffffffffffffffffffffffffffffffffffffff820361122157611220610e41565b5b60018201905091905056fea2646970667358221220823879c5c7bcf8e8f911bd5cd215677775c590ea3f98638ac15440baa95409c664736f6c634300081b0033",
  "linkReferences": {},
  "deployedLinkReferences": {}
}